:020000040800F2
:10000000880D0020C9010008090400080B0400083D
:100010000F04000813040008170400080000000083
:100020000000000000000000000000001B040008A9
:100030001D040008000000001F040008210400083F
:10004000E3010008E3010008E3010008E301000800
:10005000E3010008E3010008E3010008E3010008F0
:10006000E3010008E3010008E3010008E3010008E0
:10007000E3010008E3010008E3010008E3010008D0
:10008000E3010008E3010008E3010008E3010008C0
:10009000E3010008E3010008E3010008E3010008B0
:1000A000E3010008E3010008E3010008E3010008A0
:1000B000E30100089B4100083D440008E3010008FB
:1000C000E3010008E3010008E3010008E301000880
:1000D000E3010008E34D0008E3010008E301000824
:1000E000E3010008E3010008E301000800F002F862
:1000F00000F05AF80AA090E8000C82448344AAF168
:100100000107DA4501D100F04FF8AFF2090EBAE865
:100110000F0013F0010F18BFFB1A43F0010318473B
:10012000E0BB000000BC00000A444FF0000C10F8D7
:10013000013B13F0070408BF10F8014B1D1108BF65
:1001400010F8015B641E05D010F8016B641E01F805
:10015000016BF9D113F0080F1EBF10F8014BAD1C55
:100160000C1B09D16D1E58BF01F801CBFAD505E073
:1001700014F8016B01F8016B6D1EF9D59142D6D3CD
:10018000704700000023002400250026103A28BFF5
:1001900078C1FBD8520728BF30C148BF0B607047F9
:1001A0001FB51FBD10B510BD08F036FE1146FFF794
:1001B000F7FF00F07BF808F054FE03B4FFF7F2FFFE
:1001C00003BC04F095FB000009488047094800473C
:1001D000FEE7FEE7FEE7FEE7FEE7FEE7FEE7FEE7F7
:1001E000FEE7FEE704480549054A064B7047000054
:1001F000E7050008ED00000888070020880D0020B2
:10020000880900208809002010B500BF254B196817
:100210004FF0E0239A69234B1B689942F6D142F2D2
:1002200028339B1A0924B3FBF4F301EB4104C4EB1C
:10023000C11403EBC40010BD10B56FF0040006F04C
:100240001AFD4FF0E020006940F002004FF0E0217D
:100250000861154800684FF4FA51B0FBF1F0401EF8
:100260004FF0E02148610846006940F00100086154
:1002700010BD30B50446FFF7C7FF054600BFFFF7C6
:10028000C3FF401BA042FAD330BD10B5044603E0C3
:100290004FF47A70FFF7EDFF2000A4F101018CB25A
:1002A000F6D110BD08000020100000204FF4A0601F
:1002B00006F092FCFFF7C0FF4FF4E13004F027FB9B
:1002C00006F041FE01F08EFF05F026FE01F070FD04
:1002D00004F076FE05F02AF805F0AFFD05F0F6FD16
:1002E00047214FF6FF7003F071FE472140F6C3101F
:1002F00002F01AF802F072FA6BE036480078012832
:1003000014D1002033490870334B0E223B21682062
:1003100004F0E1FF3149324804F08BFE304800F030
:10032000A7FF2E4800F0F5FF02F06EFE2D48007882
:1003300001280CD100202B49087003F0D1FD2A4B75
:100340002A4A2749254800F023FA02F07EFB284874
:100350000078012807D1002025490870234805F0BE
:1003600029F905F0C5FB23480078012802D10020B7
:100370002049087020480078012804D100201E4937
:10038000087005F0BAFD1D480078012808D100204A
:100390001A49087001F078F901F0CEF901F01DFA60
:1003A00017480078012814D1002015490870154815
:1003B0000078012808D100201249087001F0D1FA14
:1003C00001F0AEFB01F05EFC01F03BFA022004F00C
:1003D00057F992E700000020680500205200002035
:1003E0004C00002001000020D80200204000002026
:1003F000020000200300002004000020050000206F
:10040000060000202B010020704700BFFEE700BF60
:10041000FEE700BFFEE700BFFEE77047704770478A
:1004200030480068401C2F4908602F480088401C55
:100430002D490880088800EBD0714910A0EB4101DC
:1004400011B901202949087027480088052190FB2F
:10045000F1F201FB120010B9012025490870224871
:1004600000880A2190FBF1F201FB120010B9012073
:10047000204908701C480088322190FBF1F201FBF2
:10048000120010B901201C49087017480088642127
:1004900090FBF1F201FB120010B90120174908701E
:1004A00011480088C82190FBF1F201FB120010B93D
:1004B0000120134908700C4800884FF4FA7190FB32
:1004C000F1F201FB120010B901200E490870064834
:1004D00000884FF47A7190FBF1F201FB120002499F
:1004E00008807047080000200C0000200000002059
:1004F0000100002002000020030000200400002072
:1005000005000020060000200CB50020019000909E
:100510006C48006840F480306A49086000BF694850
:10052000006800F4003000900198401C0190009891
:1005300018B90198B0F5A06FF1D16248006800F4D5
:10054000003010B10120009001E0002000900098E0
:10055000012843D15C48006840F010005A49086007
:100560000846006820F0030008600846006840F074
:100570000200086053484068524948600846406895
:1005800048600846406840F480604860084640681B
:1005900020F47C1048600846406840F4E810486049
:1005A0000846006840F08070086000BF4548006859
:1005B00000F000700028F9D04248406820F00300A5
:1005C000404948600846406840F00200486000BF6B
:1005D0003C48406800F00C000828F9D10CBD10B56B
:1005E000FFF792FF10BD10B53648006840F00100DB
:1005F0003449086008464068344908403149486039
:1006000008460068324908402E49086008460068DC
:1006100020F4802008600846406820F4FE0048600E
:100620004FF41F008860FFF7DAFF4FF000602949A0
:10063000086010BD10B5002100200022214B5B682E
:1006400003F00C0121B1042906D0082928D107E0C4
:10065000214B224C236027E01F4B204C236023E0DA
:10066000184B5B6803F47010164B5B6803F4803220
:10067000022303EB904022B9194B4343174C2360EC
:100680000DE0104B5B6803F4003323B1144B43437C
:10069000124C236003E0104B4343104C236003E0F3
:1006A0000D4B0E4C236000BF00BF064B5B68C3F3CD
:1006B00003130C4CE15C094B1B68CB40074C2360D7
:1006C00010BD000000100240002002400000FFF8B2
:1006D000FFFFF6FE08ED00E000127A001000002097
:1006E00000093D00140000202DE9F041044600BF40
:1006F00024F00040C0F1FF40C00F10B10020BDE861
:10070000F0814FF07E5120460BF082F801D8FE4870
:10071000F5E7FE4920460AF07BFF01D8FC48EEE7EA
:1007200020460AF07DFD054608F0E6FE074609F082
:100730008BFFE4E72DE9F05F82464FF0000B0021CC
:1007400050460AF065FF01D28AF0004AF14950464E
:100750000BF05EF801D2DFF8BCA350460AF060FD52
:100760008046ED4AED4B0AF04BFA06460022EC4B70
:100770000AF07AFB044609F067FF834600215846D9
:100780000AF046FF01D24FF0000B5846BDE8F09F3B
:100790000FB5A5B02698B0F900000B900AF00CFF39
:1007A0001B902698B0F902000B900AF005FF1A90F2
:1007B0002698B0F904000B900AF0FEFE19902598D7
:1007C000B0F900000B900AF0F7FE18902598B0F9E8
:1007D00002000B900AF0F0FE17902598B0F9040083
:1007E0000B900AF0E9FE1690CE48016800680AF006
:1007F00043FF1590CC480168CA4800680AF03CFFE6
:100800001490CA480168C74800680AF035FF139081
:10081000C7480168C34800680AF02EFF1290C2481A
:10082000016800680AF028FF1190C0480168BE48BE
:1008300000680AF021FF1090BD480168BA480068BE
:100840000AF01AFF0F90B948016800680AF014FF17
:100850000E90B7480168B54800680AF00DFF0D908A
:10086000B348016800680AF007FF0C90B149189876
:100870000AF002FF1890AF4917980AF0FDFE179092
:10088000AC4916980AF0F8FE1690DDE91A100AF045
:10089000F3FE0A9019990AF0EFFE00210B900AF07E
:1008A0001BFE01D129B000BD199908460AF0E4FEEB
:1008B00006901A9908460AF0DFFE04901B99084634
:1008C0000AF0DAFE039004990AF0D6FC0590069926
:1008D0000AF0D2FC07900AF0A3FCCDE9080109F068
:1008E0008DFECDE90A0109F0AFFE209020991B98FA
:1008F0000AF030FD1B9020991A980AF02BFD1A90EF
:10090000209919980AF026FD199013990F980AF06A
:10091000BBFF4FF080410B900AF0AEFE86490860A5
:100920000D9914980AF0A8FC4FF080410B900AF042
:10093000A3FE824908600E9911980AF09DFC4FF0C1
:1009400080410A900AF098FE4FF07E510B900AF019
:1009500090FF7B4908607948016819980AF08CFE7D
:100960000B90774801681A980AF086FE0A900B9956
:100970000AF08AFF2390724801681B980AF07CFEF7
:100980000B906D48016819980AF076FE0A900B9951
:100990000AF07AFF2290684801681A980AF06CFE03
:1009A0000B90664801681B980AF066FE0A900B9946
:1009B0000AF06AFF21902398FFF7BCFE0990239963
:1009C0000AF05AFE5F490A900AF056FE0B905E4804
:1009D00001680B980AF050FC5B4908602298FFF709
:1009E000A9FE099022990AF047FE56490A900AF09A
:1009F00043FE0B90554801680B980AF03DFC5349A3
:100A000008602198FFF796FE099021990AF034FEBC
:100A10004C490A900AF030FE0B904D4801680B9843
:100A20000AF02AFC4A4908602398FFF783FE4949E7
:100A300008900AF021FE099023990AF01DFE0A9001
:100A400018990AF019FC0B903F4801680B980AF0BE
:100A500013FC18902298FFF76DFE3E4908900AF0AB
:100A60000BFE099022990AF007FE0A9017990AF0E6
:100A700003FC0B90354801680B980AF0FDFB1790BA
:100A80002198FFF757FE334908900AF0F5FD0990C9
:100A900021990AF0F1FD0A9016990AF0EDFB0B90EE
:100AA0002B4801680B980AF0E7FB1690204816992E
:100AB00000680AF0E1FD09901C48179900680AF0E7
:100AC000DBFD07901848006880F0004005901899F9
:100AD0000AF0D2FD069007990AF0D6FE089009990F
:100AE0000AF0D2FE1C490A900AF0C6FD0B900D4890
:100AF00001680B980AF0C0FB0A4908600C48179976
:100B000000680AF0B9FD29E0DA0FC93F000080BF94
:100B1000DA0FC9BFCDCC4C3F7B14AE47E17AF43F2E
:100B20000000F03F64000020680000206C000020FE
:100B300070000020A07C8B3A8C00002090000020E8
:100B40009400002017B7513A74000020780000206C
:100B50007C0000206666663F0AD7233B0990FE486A
:100B6000169900680AF088FD0790FC4818990068FB
:100B70000AF082FD069007990AF07EFB0890099919
:100B80000AF082FEF6490A900AF076FD0B90F548CD
:100B900001680B980AF070FBF2490860F248189956
:100BA00000680AF069FD0990EE48169900680AF09D
:100BB00063FD0790E948179900680AF05DFD06900B
:100BC00007990AF061FE089009990AF055FBE4497B
:100BD0000A900AF051FD0B90DF4801680B980AF06B
:100BE0004BFBDD490860DC48189900680AF044FDB9
:100BF0000990DC48179900680AF03EFD0790D74835
:100C0000169900680AF038FD069007990AF034FB3F
:100C1000089009990AF038FED1490A900AF02CFD93
:100C20000B90D14801680B980AF026FBCE4908606A
:100C3000119915980AF020FB05900E990AF01CFBFB
:100C400006900C990AF018FB07900AF0E9FACDE932
:100C5000080109F0D3FCCDE90A0109F0F5FC209068
:100C6000BE48209900680AF075FBBC490860BD4881
:100C7000209900680AF06EFBBA490860B6482099CE
:100C800000680AF067FBB4490860B748209900681B
:100C90000AF060FBB4490860B448007801287CD1B0
:100CA000B24840780028FAD14FF080400E990AF0FF
:100CB000E3FC01904FF0404011990AF0DDFC0090F8
:100CC00001990AF0E1FD4FF07E5102900AF0D4FA4A
:100CD00003900AF0A5FACDE906014FF0804014997F
:100CE0000AF0CAFC02904FF080400D990AF0C4FC53
:100CF000019002990AF0C0FA03900AF091FACDE946
:100D00000401DDE9062308F03FFECDE9080109F002
:100D100025FCCDE90A0109F097FC1F904FF08040B7
:100D200013990AF0A9FC04904FF040400F990AF083
:100D3000A3FC039004990AF09FFA05900AF070FA58
:100D4000CDE9060108F0D8FBCDE9080109F006FC61
:100D5000CDE90A0109F078FC1E904FF080400E9911
:100D60000AF08AFC01904FF0404011990AF084FC8F
:100D7000009001990AF088FD4FF07E5102900AF030
:100D80007BFA03900AF04CFACDE906014FF080405F
:100D900014990AF071FC029000E01EE14FF08040CF
:100DA0000D990AF069FC019002990AF065FA039026
:100DB0000AF036FACDE90401DDE9062308F0E4FD86
:100DC000CDE9080108F0A0FECDE90A0109F03CFCDC
:100DD0001D904FF0804013990AF04EFC04904FF0A4
:100DE00040400F990AF048FC039004990AF044FA35
:100DF00005900AF015FACDE9060108F07DFBCDE972
:100E0000080108F081FECDE90A0109F01DFC1C90E3
:100E10002798B0F9040007900AF0CEFB08901D99BE
:100E20000AF02AFC09901E990AF026FC0B902798DC
:100E3000B0F9020005900AF0BFFB06901E990AF077
:100E40001BFC07901F990AF017FC09902798B0F92E
:100E5000000006900AF0B0FB07901C990AF00CFC09
:100E6000089009990AF008FA0A900B990AF00CFD0B
:100E70003F4908602798B0F9040008900AF09CFBED
:100E800009901F990AF0F8FB0B902798B0F902001F
:100E900008900AF091FB09901D990AF0EDFB0A9069
:100EA0000B990AF0E9F933490860314800680AF003
:100EB000B7F9CDE906012F4800680AF0B1F9CDE98C
:100EC0000401DDE9062308F05FFD81F000414FF0E9
:100ED000C042294BCDE9080109F092FECDE90A0193
:100EE00009F0B2FB254908602598B0F90400089084
:100EF0000AF062FB224909900AF0BEFB21490A90E0
:100F00000AF0BAFB0B902898806801460A900B986B
:100F10000AF0B2F9289988601B49184800680AF05D
:100F200077FC06D22898806818490B900AF070FB6D
:100F30000CD31649114800680AF06AFB3AD2289887
:100F4000806811490B900AF063FC33D210490B48BA
:100F500000680AF091FB1DE06C0000206400002096
:100F60000AD7233B680000207000002014020020F4
:100F7000800000208400002094A94C4088000020BC
:100F80008DC1793D0AD7A33B0000B4420000B4C232
:100F9000A69B443C0B902898806880F00040FE4956
:100FA00009900AF069FB0A900B990AF065F92899F3
:100FB00088602AE0F949FA4800680AF05DFB0B9066
:100FC00028988068F44909900AF056FB0A900B991A
:100FD0000AF052F92899886017E02598B0F90400C2
:100FE00008900AF0E9FAEF4909900AF045FBEE494A
:100FF0000A900AF041FB0B902898806801460A90FD
:101000000B980AF039F9289988604FF080401399BD
:101010000AF032FB09904FF040400F990AF02CFB88
:10102000089009990AF028F90A90FFF75DFBDF495B
:101030000B900AF021FB289948604FF080400E99F0
:101040000AF01AFB01904FF0404011990AF014FB8E
:10105000009001990AF018FC4FF07E5102900AF0BE
:101060000BF903900AF0DCF8CDE906014FF080405F
:1010700014990AF001FB02904FF080400D990AF09C
:10108000FBFA019002990AF0F7F803900AF0C8F809
:10109000CDE90401DDE9062308F076FC4FF0C042FB
:1010A000C34BCDE9080109F0ABFDCDE90A0109F018
:1010B000CBFA2899086000BFFFF7F4BB70B504466F
:1010C00020460AF079FA0646B6490AF0D5FA0546EE
:1010D000284670BD2DE9FF5F88B092469946DDF83D
:1010E0005CB0ABF1010004B208E0601E0AEBC00185
:1010F00003C90AEBC40203C2601E04B2002CF4DC74
:10110000DDE90801CAE9000100252E46002418E0A7
:10111000169800EBC40003C8CDE902010AEBC40035
:1011200003C8CDE90001DDE9022309F069FD2A4683
:101130003346CDE9040109F0B9FA05460E46601CB4
:1011400004B25C45E4DB1998401E04B208E0601E5E
:1011500009EBC00103C909EBC40203C2601E04B25B
:10116000002CF4DC0027B846012418E0189800EBA6
:10117000C40103C9CDE9020109EBC40003C8CDE9EC
:101180000001DDE9022309F03BFD3A464346CDE983
:10119000040109F08BFA07468846601C04B21998CE
:1011A0008442E3DB3A4643462846314609F04EFF87
:1011B000C9E90001D9E90001CDE90601DDE906012F
:1011C0000CB0BDE8F09F2DE9FF5F8EB014461D46C0
:1011D000DDE91CABCDE90CABCDE90A4500BF754894
:1011E00003C8CDE908017449DDE90A2303C909F000
:1011F0005DFA8046894640464946DDE90C2309F000
:1012000055FA02460B46CDE902014046494609F02F
:1012100009FBCDE90401DDE90823DDE90E0109F050
:1012200015FFCDE90001DDE9042309F0E9FCCDE972
:101230000201DDE9082309F039FA06460F460020CD
:101240005E49DDE9042309F001FF42464B46CDE942
:10125000020109F0D5FCCDE90601574ADDE9060196
:1012600003C25448C0C03046394612B0BDE8F09FB2
:101270002DE9FF410446B4F9000009F05AFC074685
:10128000884605204E494F4BCDE900304E4B4F4A22
:10129000CDE9021038464146FFF71CFF054609F02C
:1012A00019FC00B22080B4F9020009F042FC0746A4
:1012B000884605204249434BCDE90030424B283354
:1012C000424A2832CDE9021038464146FFF702FF74
:1012D000054609F0FFFB00B26080B4F9040009F094
:1012E00028FC0746884605203549364BCDE90030B5
:1012F000354B5033354A5032CDE90210384641461D
:10130000FFF7E8FE054609F0E5FB00B2A080BDE866
:10131000FF812DE9F0470446002500260027A84656
:1013200020882B492B4A126821F81200618828482E
:101330001430284A126820F81210A1881430254A67
:10134000126820F8121000BF21E0214931F9150080
:101350000AF032F98146314609F08EFF06461C49F3
:10136000143131F915000AF027F98146394609F0A0
:1013700083FF07461649283131F915000AF01CF998
:101380008146414609F078FF8046681CC5B20A2DA7
:10139000DBDB1149304621E091ED7C3FA69B443CCC
:1013A000880000208DC1793D0AD7A33BA34C65423C
:1013B00094A94C40E8000020F00000200000F03F1D
:1013C000C00000209800002060030020E8020020F8
:1013D000D8030020F80000200000204109F0BAFFE7
:1013E00081460AF0ADF800B220800F49384609F076
:1013F000B1FF81460AF0A4F800B260800A49404675
:1014000009F0A8FF81460AF09BF800B2A0800748C7
:101410000068401C0A2190FBF1F201FB1200034915
:101420000860BDE8F087000000002041F8000020BF
:1014300010B578490888784900F0B1FD75494888A9
:101440007549891C00F0ABFD724988887249091DF5
:1014500000F0A5FD10BD10B56E49C8886F4900F0B9
:101460009EFD6C4908896D49891C00F098FD694909
:1014700048896A49091D00F092FD10BD10B5654903
:10148000088C674900F08BFD6249488C654900F083
:1014900086FD6049888C644900F081FD5D49C88CF7
:1014A000624900F07CFD5B49088D614900F077FDE1
:1014B0005849488D5F4900F072FD5649888D5E4954
:1014C00000F06DFD10BD10B5534AB2F90010514A3D
:1014D000108800F00EFF504AB2F902104D4A5088B1
:1014E00000F007FF4C4AB2F904104A4A908800F015
:1014F00000FF10BD10B5494AB2F90010454AD08826
:1015000000F0F7FE454AB2F90210424A108900F095
:10151000F0FE424AB2F904103E4A508900F0E9FE5A
:1015200010BD10B53B49C88B4449098809B200F089
:10153000E0FE3849088C3A49098809B200F0D9FE22
:101540003449488C3749098809B200F0D2FE314944
:10155000888C3549098809B200F0CBFE2D49C88C2A
:101560003249098809B200F0C4FE2A49088D304981
:10157000098809B200F0BDFE2649488D2D49098829
:1015800009B200F0B6FE2349888D2B49098809B2BB
:1015900000F0AFFE10BD10B500240AE0284A32F971
:1015A0001410A21D1B4B33F8120000F0A2FE601CA9
:1015B000C4B2062CF2DB10BD10B500240AE0204AAC
:1015C00002EB4401A21D134B33F8120000F0E7FCBC
:1015D000601CC4B2062CF2DB10BD10B5194AB2F97A
:1015E00002100C4A108B00F084FE164AB2F900106B
:1015F000084A508B00F07DFE10BD10B50549088BE0
:101600001049891C00F0CBFC0249488B0D4900F0C1
:10161000C6FC10BDFC000020580000205E00002029
:10162000D0010020D2010020D4010020D6010020EA
:10163000D8010020DA010020DC010020CE010020CA
:1016400078050020540200202DE9F04105460E46A1
:10165000AA20FE4908704870EF2088700220C870E8
:10166000084605714671002405E0F848005D3844DD
:10167000C7B2601CC4B2062CF7DBF44887710720A0
:1016800000F0BAFBBDE8F081F8B5AA20EF49087078
:101690004870012088700C20C870ED490868ED4939
:1016A00009F0EAFF064609F04BFF00B200909DF8F2
:1016B0000100E64908719DF800004871E44840685F
:1016C00080F00047E349384609F0D6FF064609F0A6
:1016D00037FF00B200909DF80100DC4988719DF849
:1016E0000000C871DA498868DA4909F0C5FF064682
:1016F00009F026FF00B200909DF80100D34908725E
:101700009DF80000487200208872C8720873487300
:101710008873D1480078C873002405E0CB48005D89
:101720002844C5B2601CC4B2102CF7DBC74805744E
:10173000112000F061FBF8BD70B500240025AA203F
:10174000C24908704870022088701220C870C348CF
:1017500040780871C14800784871C048C0788871E5
:10176000BE488078C871BD4840790872BB4800798E
:101770004872BB4840788872B9480078C872B84847
:10178000C0780873B64880784873B5484079887344
:10179000B3480079C873B34840780874B1480078FA
:1017A0004874B048C0788874AE488078C874AD4832
:1017B00040790875AB480079487500BF05E0A3483B
:1017C000005D2844C5B2601CC4B2162CF7DB9F48EC
:1017D0008575172000F010FB70BD7CB50024002536
:1017E000AA209A4908704870072088700620C8709F
:1017F0009D48006800909DF8030008719DF8020064
:1018000048719DF8010088719DF80000C8719748E3
:10181000B0F9000001909DF8050008729DF80400E1
:10182000487200BF05E08948005D2844C5B2601CCD
:10183000C4B2092CF7DB854885720B2000F0DCFA76
:101840007CBD70B500240025AA208049087048702E
:10185000032088701420C870854840780871844837
:101860000078487183484078887182480078C87150
:101870008148407808728048007848727F484078F4
:1018800088727E480078C8727D48407808737C482A
:10189000007848737B48407888737A480078C8732A
:1018A00079484078087478480078487477484078D8
:1018B000887476480078C87475484078087574480C
:1018C0000078487500208875C87500BF05E05F483E
:1018D000005D2844C5B2601CC4B2182CF7DB5B481D
:1018E0000576192000F088FA70BD70B50024002537
:1018F000AA20564908704870062088701020C870C9
:101900005F48407808715E48007848715D484078CB
:1019100088715C480078C8715B48407808725A4802
:101920000078487259484078887258480078C872E0
:101930000020087348738873C873087448748874E7
:10194000C87400BF05E04148005D2844C5B2601C72
:10195000C4B2142CF7DB3D480575152000F04CFA95
:1019600070BDF8B5AA2039490870487011208870F8
:101970001220C87047490868474909F07DFE0646AD
:1019800009F0DEFD00B200909DF801002F490871BA
:101990009DF8000048713F4948683F4909F06CFED6
:1019A000064609F0CDFD00B200909DF801002749E0
:1019B00088719DF80000C87136498868364909F079
:1019C0005BFE064609F0BCFD00B200909DF80100E8
:1019D0001E4908729DF800004872304908682E4977
:1019E00009F04AFE064609F0ABFD00B200909DF8F2
:1019F0000100164988729DF80000C872274948689E
:101A0000254909F039FE064609F09AFD00B200901A
:101A10009DF801000D4908739DF8000048731F49A7
:101A200088681D4909F028FE064609F089FD00B2C4
:101A300000909DF80100054988739DF80000C87367
:101A400017490868144909F017FE2BE036050020F5
:101A5000D80200200000C842CC0100204C00002029
:101A60005200002040000020480200204C020020CC
:101A7000C4010020C6010020C0010020C2010020D6
:101A8000380100203C0100204001002044010020DA
:101A9000C80100205004002000007A446C0400209B
:101AA00088040020064609F04BFD00B200909DF826
:101AB0000100B74908749DF800004874B5494868AA
:101AC000B54909F0D9FD064609F03AFD00B200908B
:101AD0009DF80100AE4988749DF80000C874AD49B6
:101AE0008868AD4909F0C8FD064609F029FD00B235
:101AF00000909DF80100A64908759DF80000487502
:101B0000002405E0A248005D2844C5B2601CC4B2B0
:101B1000162CF7DB9E488575172000F06DF9F8BD8F
:101B2000F8B5AA209A4908704870102088701220D1
:101B3000C8709A490868984909F09EFD064609F060
:101B4000FFFC00B200909DF80100914908719DF8DA
:101B500000004871914948688F4909F08DFD06469B
:101B600009F0EEFC00B200909DF8010088498871F0
:101B70009DF80000C87189498868874909F07CFD93
:101B8000064609F0DDFC00B200909DF80100804996
:101B900008729DF800004872814908687E4909F082
:101BA0006BFD064609F0CCFC00B200909DF80100E8
:101BB000774988729DF80000C8727949486876496B
:101BC00009F05AFD064609F0BBFC00B200909DF8F2
:101BD00001006F4908739DF80000487370498868D8
:101BE0006D4909F049FD064609F0AAFC00B20090D3
:101BF0009DF80100664988739DF80000C873694923
:101C00000868654909F038FD064609F099FC00B2FC
:101C100000909DF801005E4908749DF8000048742A
:101C2000604948685C4909F027FD064609F088FCD0
:101C300000B200909DF80100554988749DF800009D
:101C4000C87458498868544909F016FD064609F0D9
:101C500077FC00B200909DF801004D4908759DF891
:101C600000004875002405E04948005D2844C5B2DD
:101C7000601CC4B2162CF7DB45488575172000F0B0
:101C8000BBF8F8BDF8B5AA20414908704870122089
:101C90008870C870444908683F4909F0EDFC064661
:101CA00009F04EFC00B200909DF80100384908711F
:101CB0009DF8000048713C494868374909F0DCFC50
:101CC000064609F03DFC00B200909DF80100304945
:101CD00088719DF80000C871334988682E4909F061
:101CE000CBFC064609F02CFC00B200909DF80100E8
:101CF000274908729DF8000048722C490868264957
:101D000009F0BAFC064609F01BFC00B200909DF8F1
:101D100001001F4988729DF80000C8722349486875
:101D20001D4909F0A9FC064609F00AFC00B2009022
:101D30009DF80100164908739DF8000048731B497F
:101D40008868154909F098FC064609F0F9FB00B2CD
:101D500000909DF801000E4988739DF80000C8733B
:101D60000020087448748874C87408754875002485
:101D700005E00748005D2844C5B2601CC4B2162CBB
:101D8000F7DB03488575172000F036F8F8BD000032
:101D9000360500208804002000007A44A4040020B6
:101DA000C0040020DC040020580600203C0600206F
:101DB00000B58BB00121084605F093FE1E4804F0E3
:101DC00079FF1E4800901E4801901020029032209A
:101DD000039000200490802005900020069007903A
:101DE00008904FF48050099000200A9069461248EC
:101DF00005F002F80BB000BD10B5044601228021A9
:101E00000E48001F06F0ECFE00210B4805F01FF8FD
:101E10002146094805F030F80121074805F017F878
:101E200000BF4FF4005005F02DF80128F9D1400310
:101E300005F03CF810BD00004400024004380140A9
:101E400036050020034606210622F9480188F94894
:101E50000288ABB1012B1BD13AB94EF6EE6081423C
:101E600001D1002070470120FCE739B94EF6EE6041
:101E7000824201D10120F5E70020F3E7AB20F1E732
:101E800009B90020EEE70AB90120EBE7AB20E9E74A
:101E90000020E7E770B5042600240120FFF7D2FFF9
:101EA0000446AB2C06D1E24800EB8420E2490860EE
:101EB000AB2070BDDE4800EB8420DF490860601C69
:101EC000DB49891E01EB80250CE0DB4800680068D7
:101ED000401C10B904263046EBE7D7480068001DC7
:101EE000D5490860D4480068A842EED38020E0E7D6
:101EF00010B50424CE4805F06BF80446042C01D03C
:101F0000204610BD0021CA4805F065F90446042C9E
:101F100001D02046F5E7C74805F05AF804462046A8
:101F2000EFE72DE9F04104460F4604250026DFF8CF
:101F30000C830120FFF786FF0646AB2E01D1BDE8DA
:101F4000F081701CBA49891E01EB802821E0BA4853
:101F500000680068401CB8B93946B748006805F009
:101F60003AF90546042D01D02846E8E72146B24853
:101F70000068801C05F02FF90546AF480068001D79
:101F8000AD4908602846DAE7AB480068001DAA4959
:101F90000860A94800684045D9D38020CFE72DE9E3
:101FA000F04706460F46002545F255584FF0010907
:101FB0009F4CA2460020FFF745FF0546AB2D01D1FF
:101FC000BDE8F0879A4800EB852A9B480068841E8C
:101FD0000BE0B4F80080B04506D134F8020C00B232
:101FE00038804FF0000904E0241F0AF10200844207
:101FF000EFD800BF4846E3E72DE9F0474FF0060A67
:10200000062600250027A8464FF0FF398848B0F87B
:1020100000A0884806885FEA0A0076D0A0F56E40E6
:10202000EE3858B3A0F58850113800286ED146B963
:102030007F4804F0CDFF0446042C1ED02046BDE8A6
:10204000F0874EF6EE60864210D1794804F0C0FF6A
:102050000446042C01D02046F1E70021754805F024
:10206000BAF80446042C08D02046E8E7FFF740FF02
:102070000446042C01D02046E1E7B0E086BB0025F1
:1020800023E06B48C0886E4931F81510884201D1B1
:102090000FFA85F94D4516D0694931F8150069499F
:1020A000FFF77DFF8046B8F1010F0CD0654A12881A
:1020B00091B2634A32F81500FFF733FF0746042F49
:1020C00001D03846BBE7681C85B2172DD9DB00214B
:1020D000574805F080F80446042C02D02046AEE7AD
:1020E00007E0544804F074FF0446042C1FD0204637
:1020F000A5E74FF6FF70864212D14E4804F068FF04
:102100000446042C03D0204699E711E05FE000214B
:10211000474805F060F80446042C08D020468EE7B6
:10212000FFF7E6FE0446042C01D0204687E756E080
:1021300036B9FFF7DDFE0446042C47D020467EE783
:102140004FF6FF70864207D13A4804F041FF04463B
:10215000042C3BD0204672E7002524E03548801D42
:102160000088374931F81510884201D10FFA85F9F6
:102170004D4516D0324931F815003249FFF70FFFAF
:102180008046B8F1010F0CD02E4A128891B22C4A29
:1021900032F81500FFF7C5FE0746042F01D0384678
:1021A0004DE7681C85B2172DD8DB0021214805F0CA
:1021B00012F80446042C01D0204640E71C4804F0E5
:1021C00007FF0446042C01D0204638E707E0FFF75C
:1021D0008FFE0446042C01D0204630E700BF00BF2C
:1021E00004202CE710B5FFF707FF0446FFF752FE67
:1021F000204610BD2DE9F84F074689460425DFF833
:1022000034A0AAF1010A0A4800904FF00008002407
:1022100000264FF0000B0020FFF714FE8046B8F1B7
:10222000010F11D1DFF808A00248009017E000006C
:10223000000001080004010834010020FF07010824
:10224000FC00002030010020B8F1000F04D1DFF8BD
:10225000C8A03248009002E0AB20BDE8F88F4EF6EF
:10226000EE61504604F0B7FF0546042D01D0284624
:10227000F3E7FFF70FFE49463846FFF752FE0646E2
:10228000042E01D03046E8E700241DE0244830F851
:102290001400B84216D0224931F814002149FFF742
:1022A0007EFE8346BBF1010F0CD01E4A128891B20C
:1022B0001B4A32F81400FFF734FE0646042E01D004
:1022C0003046CAE7601C84B2172CDFDB009804F0AC
:1022D0007FFE0546042D01D02846BEE7002150466A
:1022E00004F079FF0546042D01D02846B5E72846BD
:1022F000B3E770B506460C460025A1B23046FFF79D
:1023000010FE0546802D04D1A1B23046FFF772FFC2
:102310000546284670BD00000004010800000108C1
:10232000FC0000203001002030B589B005460C4685
:102330000121052005F0E2FB0121084605F0EBFB39
:102340000F20ADF8200018208DF8230003208DF811
:10235000220008A93B4805F015F9ADF81850ADF872
:1023600014400020ADF81A00ADF8160005A94FF092
:10237000804005F0FBFC6020ADF804000120ADF8C2
:1023800006000020ADF80C0001A94FF0804005F0D8
:102390002AFD0821C80606F075F901A94FF0804012
:1023A00005F063FD0821C80606F075F901A94FF094
:1023B000804005F0A7FD0821C80606F079F901A9BB
:1023C0004FF0804005F0E9FD0821C80606F079F9D4
:1023D0000121880706F026F94FF47A71C80606F045
:1023E000B9FA4FF47A71C80606F0B6FA4FF47A716A
:1023F000C80606F0B3FA4FF47A71C80606F0B0FAD0
:102400000121880706F00EF809B030BD2DE9F04132
:1024100004460F4615461E4621464FF0804006F002
:1024200099FA39464FF0804006F096FA29464FF067
:10243000804006F093FA31464FF0804006F090FA63
:10244000BDE8F0810008014010B50220FDF711FF42
:1024500010BD08B50121102005F050FB4FF4C0500D
:10246000ADF8000010208DF8030003208DF8020065
:102470006946D74805F086F84FF4C051D44805F0B6
:102480002EF908BD10B5D248406820F47040D049FC
:1024900048600846406840F4405048600120CD49FB
:1024A0000860CD49C1F8B001FFF7CEFF0020C9494F
:1024B0000860FFF7C9FF0020C749C1F8B00110BD8F
:1024C00010B5C348406820F47040C14948600846D0
:1024D000406840F4405048600020BE49091D086033
:1024E000BD49C1F8AC01FFF7AFFF0120B949091D93
:1024F0000860B949C1F8AC01FFF7A6FF10BD10B5DF
:102500000024B348406820F47040B1494860084650
:10251000406840F4004048600120AE490860FFF781
:1025200093FF0120AC49C1F8B001FFF78DFF07E030
:10253000601CC4B2FA2C03DDFFF7C2FF012010BDFE
:10254000A448803800680028F2D1A249091D08601B
:1025500000BFF4E710B500209E49091D08609C48A3
:10256000406820F470409A4948600846406840F44A
:102570004050486000209849C1F8AC01FFF764FF63
:1025800001209449091D0860FFF75EFF0020924971
:10259000C1F8B00110BD10B500208E49091D0860BA
:1025A0008B48406820F4704089494860084640687C
:1025B00040F44050486001208749C1F8AC01FFF762
:1025C00043FF01208349091D0860FFF73DFF0020FC
:1025D0008149C1F8B00110BD70B504467C4840681F
:1025E00020F470407A4948600846406840F4405002
:1025F000486000207749091D0860002512E0E009C5
:10260000744908606006040E01207349C1F8B001E6
:10261000FFF71AFF00206F49091D0860FFF714FF3C
:10262000681CC5B2082DEADB70BD70B505460024F4
:102630006748406820F47040654948600846406833
:1026400040F400404860002615E000206149091D63
:102650000860FFF7F9FE01205F49C1F8B00160068C
:10266000040E5C488038006808B1601CC4B2FFF7F3
:10267000EBFE701CC6B2082EE7DB15B9FFF78BFF27
:1026800001E0FFF767FF204670BD2DE9F04180466D
:102690000D4616461F46FFF7F5FE4046FFF79CFF26
:1026A000FFF72DFF20B1FFF70BFF0120BDE8F08100
:1026B0002846FFF791FFFFF722FF00240BE0385D6B
:1026C000FFF78AFFFFF71BFF18B1FFF7F9FE0120A4
:1026D000ECE7601CC4B2B442F1DBFFF7F1FE00206E
:1026E000E4E72DE9F04106460F4614461D46FFF784
:1026F000C9FE3046FFF770FFFFF701FF20B1FFF77B
:10270000DFFE0120BDE8F0813846FFF765FFFFF7E7
:10271000F6FEFFF7B7FE711CC8B2FFF75DFFFFF7CB
:10272000EEFE0DE0012C04D10020FFF77EFF2870A3
:1027300003E00120FFF779FF2870601EC4B26D1C12
:10274000002CEFD1FFF7BCFE0020DBE770B506469A
:102750000C461546FFF796FE3046FFF73DFFFFF7A4
:10276000CEFE18B1FFF7ACFE012070BD2046FFF78A
:1027700033FFFFF7C4FE2846FFF72EFFFFF7BFFE2B
:1027800018B1FFF79DFE0120EFE7FFF799FE00204B
:10279000EBE770B504460D46FFF774FE2046FFF7E1
:1027A0001BFFFFF7ACFE2846FFF716FFFFF7A7FE5B
:1027B000FFF768FE611CC8B2FFF70EFFFFF79FFE30
:1027C0000020FFF732FF0646FFF77AFE304670BD65
:1027D00000100140AC01224200002242F948FA49AF
:1027E0000860FA4848604FF07E508860F548F84924
:1027F0000860F84848604FF07E508860F648F74916
:102800000860F44848604FF07C508860F448F5490F
:102810000860F548486080078860F148F34908601F
:10282000F148486080078860F148F24908604FF03D
:102830007E50486088604FF07F50EF49086000206C
:102840004860EE488860EE48EE490860EE4848600F
:10285000EE488860704710B55DE0142001F010FF6D
:10286000EB48007800B157E0EA48B0F9000040F2C8
:102870006C7188421EDDE748B0F9000040F6340173
:10288000884217DAE448B0F9000040F26C718842DF
:1028900010DDE148B0F9000040F63401884209DA61
:1028A000601CC4B2282C05D10020DC49087001F05E
:1028B00042FF0024D748B0F9000040F24C41884262
:1028C00015DAD448B0F90000B0F5617F0FDDD248C9
:1028D000B0F9000088420ADACF48B0F90000B0F53C
:1028E000617F04DD0120CE490870CE490870CE48D2
:1028F000006808B9012000E00020CB490860CB48FF
:10290000D0F8880108B9012000E00020C84908601B
:102910003220FDF7BAFCA0E700BFFEF79CFDFEF7F2
:1029200087FDFEF76AFEFEF7A9FDC2490988C24A83
:102930001288881800EBD071C1F34F01BF4A118093
:10294000BF490988BF4A1288881800EBD071C1F3CB
:102950004F01BD4A1180BD490988BD4A12888818B7
:1029600000EBD071C1F34F01BA4A118010BD2DE9BF
:10297000F0410446B849B948006808F085FFB849F5
:102980000860B849B648006808F0E4FC8046B648DC
:102990000168404608F078FF0646B449204608F032
:1029A0006BFE0746314608F067FE0546AE480168F3
:1029B000284608F061FCAC4908600021AA4800687C
:1029C00008F026FE01D200200BE04FF07E51A64811
:1029D000006808F01DFF02D24FF07E5001E0A248CF
:1029E0000068A3490860A3480078012827DB9C48B9
:1029F0000168204604F02FF8824881699C480068ED
:102A000008F03AFE0546002108F002FE01D200203F
:102A100012E07C4881699648006808F02DFE054662
:102A2000954908F0F5FE01D2934805E075488169A3
:102A30008F48006808F020FE9049086003E088484D
:102A400000688E490860BDE8F0812DE9FC5F002434
:102A500000250026FDF7D8FB894908600968894AE6
:102A60001268881A08F0C0FD8046874908F072FC99
:102A700007468448006828B9814800688149086091
:102A8000BDE8FC9F814801688148006808F0FCFEB1
:102A900004467E4841687F48006808F0F5FE054618
:102AA0007A4881687C48006808F0EEFE80467B49E1
:102AB00008F0AEFD01D2794812E07448816876488A
:102AC000006808F0E1FE8046754908F0A1FE01D2D9
:102AD000734805E06D4881686F48006808F0D4FECF
:102AE000064639494868214608F0C6FD8146394600
:102AF00008F0C2FD804634480169404608F0BCFB3E
:102B00003149086132494868294608F0B5FD8146D7
:102B1000394608F0B1FD80462D480169404608F06D
:102B2000ABFB2B4908612D494868314608F0A4FDEC
:102B30008146394608F0A0FD804628480169404694
:102B400008F09AFB254908614948006880F0004A6E
:102B50004FF07C51504608F08FFD8146514908F0F6
:102B60008BFD804618480169404608F051FE0DD2A1
:102B70003F48006880F000494FF07C51484608F01B
:102B80007BFD8046474908F077FD90E04FF07C518F
:102B90003748006808F070FD8146424908F06CFD36
:102BA000804609480169404608F032FD7DD24FF069
:102BB0007C512F48006808F05FFD8046394908F0D5
:102BC0005BFD74E06F12033C500400200AD7A33D64
:102BD0006C040020CDCC4C3D0AD7A33B88040020D8
:102BE000CDCC4C3FA4040020CDCCCC3DC004002073
:102BF0009A99993FDC0400203C0600200000204008
:102C00009A99993E580600208FC2F53D3333B33F61
:102C1000CC010020C0010020C20100202A010020B8
:102C2000F4010020F5010020A00121420080224291
:102C300088812242D6010020D8010020DE01002038
:102C4000DA010020DC010020E0010020D201002098
:102C5000D4010020E201002000007A445401002049
:102C6000600100200000C843640100203433FB41B0
:102C700058010020CD010020000048445C010020E4
:102C8000680100206C01002000247449D802002053
:102C9000480100204C01002050010020000034C2F7
:102CA000000034420000C841FFE7FA480069F949D2
:102CB0000861F948006880F0004A4FF07C515046A6
:102CC00008F0DAFC8146F54908F0D6FC8046F44865
:102CD0000169404608F09CFD0DD2EF48006880F085
:102CE00000494FF07C51484608F0C6FC8046EB494D
:102CF00008F0C2FC1DE04FF07C51E748006808F086
:102D0000BBFC8146E54908F0B7FC8046E448016910
:102D1000404608F07DFC0AD24FF07C51DE48006846
:102D200008F0AAFC8046DD4908F0A6FC01E0DC487A
:102D30000069DB490861D848006880F0004A4FF01C
:102D40007C51504608F098FC8146D44908F094FC28
:102D50008046D4480169404608F05AFD0DD2CE485D
:102D6000006880F000494FF07C51484608F084FC30
:102D70008046CA4908F080FC1DE04FF07C51C648EF
:102D8000006808F079FC8146C44908F075FC80466B
:102D9000C4480169404608F03BFC0AD24FF07C5120
:102DA000BD48006808F068FC8046BC4908F064FC37
:102DB00001E0BC480069BB4908610021204608F0D9
:102DC00027FD01D2204601E084F000408046B6494C
:102DD00008F0C0FAB54908600021284608F018FD3F
:102DE00001D2284601E085F000408046AE4908F057
:102DF000B1FAAE4948600021304608F009FD01D221
:102E0000304601E086F000408046A74908F0A2FA6B
:102E1000A649886008460168A54808F02DFC82464E
:102E2000A44908F029FA80463946A34808F092FAE6
:102E30008346A2480168204608F026FD0190954887
:102E400081689F4808F018FC0090019908F014FC74
:102E50008246594608F010FC8146414608F00CFCB9
:102E60008C49486191484168914808F005FC8246C8
:102E7000904908F001FA804639468F4808F06AFA0E
:102E8000019090480168284608F0FEFC834684487B
:102E900081688B4808F0F0FB5946009008F0ECFB85
:102EA0008246019908F0E8FB8146414608F0E4FBC0
:102EB0007B4948617D4881687D4808F0DDFB82469A
:102EC0007C4908F0D9F9804639467B4808F042FA37
:102ED00001907D480168304608F0D6FC8346714871
:102EE0008168774808F0C8FB5946009008F0C4FB99
:102EF0008246019908F0C0FB8146414608F0BCFBC0
:102F0000684948617149204608F082FB01D26F4848
:102F100007E06F49204608F07BFC01D26C4800E0D6
:102F2000204604466949284608F072FB01D26748EA
:102F300007E06749284608F06BFC01D2644800E0CE
:102F4000284605466149304608F062FB01D25F48D9
:102F500007E05F49304608F05BFC01D25C4800E0C6
:102F6000304606464B480169204608F085F98146FF
:102F700048484169484608F07FF98046454801685D
:102F8000404608F079FB4349886145480169284675
:102F900008F072F9814642484169484608F06CF9E8
:102FA00080463F480168404608F066FB3C4988611E
:102FB0003C480169304608F05FF98146394841696B
:102FC000484608F059F9804636480168404608F0FE
:102FD00053FB344988613F493F48006808F018FBBB
:102FE00006D200202E4908612A4908612D4908614E
:102FF000324804603348056033480660374800684B
:103000003749086000BF3BE500B5A1B000201A9029
:1030100019901890FDF7F8F83249086008460068E2
:1030200031490968401A109008F0DEFA2F491190D2
:1030300008F090F91F902C48006828B929480068CA
:103040002949086021B000BD2948B0F9000011905D
:10305000FEF734F817902648B0F902001190FEF7F9
:103060002DF816902248B0F904001190FEF726F8CA
:103070001590084880690C490F9008F06BF91D49BC
:10308000109008F0F9FA1C49119008F0C1FA35D2F5
:1030900019484EE050040020580100200000C841AB
:1030A0006C040020880400200000F041F804002097
:1030B0003333B33E6666263F0AD7A33B7001002038
:1030C0000000204174010020780100200000B4C2FB
:1030D0000000B4420000C8425C01002068010020EA
:1030E0006C0100207C010020800100200024744934
:1030F0005200002000009643000096C3FE488069FD
:10310000FE490F9008F026F9FD49109008F0B4FA36
:10311000FB49119008F07CFB01D2F94809E0F64820
:103120008069F649109008F015F9F549119008F0FA
:10313000A3FAF1498861F3488069F0490F9008F0DB
:1031400009F9EF49109008F097FAEF49119008F04B
:103150005FFA01D2EC481AE0EA488069E7490F902B
:1031600008F0F8F8E649109008F086FAE449119062
:1031700008F04EFB01D2E24809E0E2488069DF49ED
:10318000109008F0E7F8DE49119008F075FADD4973
:103190008861DE488069D9490F9008F0DBF8D8498A
:1031A000109008F069FAD849119008F031FA01D26C
:1031B000D5481AE0D5488069D0490F9008F0CAF880
:1031C000CF49109008F058FACD49119008F020FB33
:1031D00001D2CB4809E0CD488069C849109008F079
:1031E000B9F8C749119008F047FAC8498861C24840
:1031F00080691090179908F047FB4FF07E511190AD
:1032000008F03AFA1A90BF4880691090169908F0B1
:103210003BFB4FF07E51119008F02EFA1990BB48FD
:1032200080691090159908F02FFB4FF07E51119096
:1032300008F022FA1890B6481F9908F08BF8119000
:10324000B4480168179808F01FFB1090119908F016
:1032500013FAB1490860AE481F9908F07BF8119045
:10326000AE480168169808F00FFB1090119908F00D
:1032700003FAA9494860A6481F9908F06BF8119015
:10328000A7480168159808F0FFFA1090119908F006
:10329000F3F9A149886000211A9808F0B9FA01D21F
:1032A0001A9802E01A9880F000409549119008F0B1
:1032B00051F812900021199808F0AAFA01D2199831
:1032C00002E0199880F000408D49119008F042F812
:1032D00013900021189808F09BFA01D2189802E088
:1032E000189880F000408F49119008F033F814903E
:1032F0008948006801460E901A9808F0C5FA0F90A8
:103300008948406801460E900F9808F0B5F9109072
:103310001F9908F0B1F91190834800690146109097
:10332000119807F0A9FF804908617B484068014671
:103330000E90199808F0A8FA0F907C484068014652
:103340000E900F9808F098F910901F9908F094F9D2
:1033500011907648006901461090119807F08CFF93
:10336000724908616C48806801460E90189808F010
:103370008BFA0F906E48406801460E900F9808F047
:103380007BF910901F9908F077F91190684800694F
:1033900001461090119807F06FFF65490861654874
:1033A000006880F000404FF07C510F9008F064F905
:1033B0005349109008F060F911905B48006901468C
:1033C0001090119808F024FA0DD25A48006880F045
:1033D00000404FF07C51109008F04EF94849119090
:1033E00008F04AF91FE04FF07C515248006808F09D
:1033F00043F94349109008F03FF911904A48006999
:1034000001461090119808F003F90AD24FF07C5150
:103410004848006808F030F93949119008F02CF953
:1034200001E041480069404908614248006880F075
:1034300000404FF07C510F9008F01EF93049109079
:1034400008F01AF911903948006901461090119856
:1034500008F0DEF90DD23748006880F000404FF0E8
:103460007C51109008F008F92549119008F004F9F2
:103470001FE04FF07C512F48006808F0FDF820490C
:10348000109008F0F9F81190284800690146109052
:10349000119808F0BDF80AD24FF07C512548006819
:1034A00008F0EAF81649119008F0E6F801E01F4824
:1034B00000691E4908611F48006880F000404FF015
:1034C0007C510F9008F0D8F80D49109008F0D4F80E
:1034D00011901748006901461090119808F098F96A
:1034E0002ED21448006880F000404FF07C511090BC
:1034F00008F0C2F802491FE0500400200000F0412B
:10350000000096436C040020000096C3880400204D
:103510006F12033B900100208401002094010020E1
:103520009801002000001643A4040020C0040020DD
:10353000DC04002058010020119008F09DF81FE0E5
:103540004FF07C51FE48006808F096F8FD49109055
:1035500008F092F81190FC4800690146109011980B
:1035600008F056F80AD24FF07C51F548006808F090
:1035700083F8F449119008F07FF801E0F2480069FF
:10358000F1490861F1481F9907F0E4FE1190F048F5
:10359000006801460E90EF4808F06EF80F90EE4874
:1035A000806801460E900F9808F066F81090119907
:1035B00008F062F8E8494861E4481F9907F0CAFE3C
:1035C0001190E348406801460E90E24808F054F834
:1035D0000F90E248806801460E900F9808F04CF872
:1035E0001090119908F048F8DC494861D7481F99B4
:1035F00007F0B0FE1190D648806801460E90D5487D
:1036000008F03AF80F90D048806801460E900F9865
:1036100008F032F81090119908F02EF8CA49486164
:10362000CD480069014603901A9807F025FE0490E2
:10363000C948406901460390049807F01DFE0590B3
:1036400007F0EEFDCDE90801C3480068039007F0DC
:10365000E7FDC34AC34BCDE9040107F0D1FACDE938
:103660000601DDE9082307F0CBFACDE90C01BE48DD
:103670008069059007F0D4FDCDE908011298014654
:103680000090BA4807F0F8FFB949019007F0F4FD3F
:103690000021029007F0BCFF01D200201CE012982C
:1036A00001460090B14807F0E7FFB149019007F0EB
:1036B000E3FD4FF07E51029008F0AAF802D24FF0DD
:1036C0007E5009E0129801460190A84807F0D4FF07
:1036D000A749029007F0D0FD039007F0A1FDA04A92
:1036E000A44BCDE9040107F08BFACDE90601DDE931
:1036F000082307F085FACDE90A01DDE90C2306F07D
:10370000D5FF00229C4BCDE90E0107F079FACDE9F7
:10371000100106F099FF90498861904800690146C0
:103720000390199807F0A8FD04908C484069014661
:103730000390049807F0A0FD059007F071FDCDE916
:10374000080186480068039007F06AFD844A854BAB
:10375000CDE9040107F054FACDE90601DDE90823BB
:1037600007F04EFACDE90C0184488069059007F016
:1037700057FDCDE908011398014600907B4807F0FA
:103780007BFF7B49019007F077FD0021029007F055
:103790003FFF01D200201CE01398014600907348BF
:1037A00007F06AFF7249019007F066FD4FF07E5105
:1037B000029008F02DF802D24FF07E5009E01398E5
:1037C00001460190694807F057FF6949029007F0E8
:1037D00053FD039007F024FD614A664BCDE90401D7
:1037E00007F00EFACDE90601DDE9082307F008FA33
:1037F000CDE90A01DDE90C2306F058FF00225E4BFB
:10380000CDE90E0107F0FCF9CDE9100106F01CFF2F
:10381000524988614C48006901460390189807F0A6
:103820002BFD04904848406901460390049807F036
:1038300023FD059007F0F4FCCDE90801424800683B
:10384000039007F0EDFC464A464BCDE9040107F032
:10385000D7F9CDE90601DDE9082307F0D1F9CDE973
:103860000C0147488069059007F0DAFCCDE90801B2
:103870001498014600903D4807F0FEFE3C49019037
:1038800007F0FAFC0021029007F0C2FE01D20020EE
:103890001CE0149801460090344807F0EDFE3449CE
:1038A000019007F0E9FC4FF07E51029007F0B0FF65
:1038B00002D24FF07E5009E01498014601902B4847
:1038C00007F0DAFE2A49029007F0D6FC039007F0D1
:1038D000A7FC234A274BCDE9040107F091F9CDE974
:1038E0000601DDE9082307F08BF9CDE90A01DDE9DE
:1038F0000C2306F0DBFE00221F4BCDE90E0107F082
:103900007FF9CDE9100106F09FFE0F4988611D493E
:103910001D48006807F07CFE06D200200E490861B1
:103920000E49086108490861184917980860184944
:1039300016980860174915980860174800682DE028
:103940005801002000009643DC0400206F12033B66
:1039500084010020000020C1A4040020C004002035
:103960009A9999999999E93F50040020CDCC0C3F40
:103970006666E63E9999C93F000008406C04002045
:10398000880400200000C8425C0100209001002053
:1039900094010020980100207C010020FA49086071
:1039A0001F98FEF7E4FFF9480078002872D0F84825
:1039B0008069F849119007F02BFE01D2F5480AE022
:1039C000F3488069F449119007F022FF01D2F248D0
:1039D00001E0EF488069EE498861F04880690F9006
:1039E000EF4880690E900F9907F04EFF1090E8485D
:1039F000806901460F90109807F03EFCE94911904C
:103A000007F006FE01D2E74828E0E44880690F90FD
:103A1000E34880690E900F9907F036FF1090DC485C
:103A2000806901460F90109807F026FCDE4911903E
:103A300007F0EEFE01D2DC4810E0D8488069109013
:103A4000D74880690F90109907F01EFF1190D04859
:103A5000806901461090119807F00EFC1B90D04829
:103A6000806980F000400F90CC48806901460E903C
:103A70000F9807F009FF1090C548806901460F9024
:103A8000109807F001FFC749119007F0C1FD02D25D
:103A9000C4482FE0FDE1C248806980F000400F90EB
:103AA000BE48806901460E900F9807F0EDFE109019
:103AB000B748806901460F90109807F0E5FEBA49B3
:103AC000119007F0A5FE01D2B74813E0B448806911
:103AD00080F000401090B148806901460F90109826
:103AE00007F0D2FE1190AA48806901461090119803
:103AF00007F0CAFE1C90AA48806980F000400F9031
:103B0000A648806901460E900F9807F0B5FB10900B
:103B10009F48806901460F90109807F0ADFBA149BE
:103B2000119007F075FD01D29E482EE09C488069F7
:103B300080F000400F909948806901460E900F98E0
:103B400007F09AFB10909248806901460F901098F8
:103B500007F092FB9449119007F05AFE01D2924867
:103B600013E08F48806980F0004010908B48806996
:103B700001460F90109807F07FFB119084488069F0
:103B800001461090119807F077FB1D9083488069DB
:103B90000F90834880690E900F9907F06DFB10908D
:103BA0007B48806901460F90109807F06DFE7D49B3
:103BB000119007F02DFD01D27A4828E077488069FE
:103BC0000F90774880690E900F9907F055FB109081
:103BD0006F48806901460F90109807F055FE7249B2
:103BE000119007F015FE01D26F4810E06B48806914
:103BF00010906B4880690F90109907F03DFB119071
:103C00006348806901461090119807F03DFE1E90B0
:103C10001B9800210B9007F0FBFD01D21B9802E0DE
:103C20001B9880F0004061490C9007F025FD5E492B
:103C30000D9007F08FFB5E490E9007F01DFB0F9073
:103C40001B9801460E900F9807F016FD10905948EA
:103C50000168109807F010FD1190574801681198FD
:103C600007F00AFB1B901C9800210B9007F0D0FD79
:103C700001D21C9802E01C9880F000404B490C9047
:103C800007F0FAFC48490D9007F064FB48490E9094
:103C900007F0F2FA0F901C9801460E900F9807F06B
:103CA000EBFC109043480168109807F0E5FC119078
:103CB00041480168119807F0DFFA1C901D98002117
:103CC0000B9007F0A5FD01D21D9802E01D9880F031
:103CD000004036490C9007F0CFFC33490D9007F0B7
:103CE00039FB33490E9007F0C7FA0F901D98014633
:103CF0000E900F9807F0C0FC10902E4801681098A5
:103D000007F0BAFC11902C480168119807F0B4FA3A
:103D10001D901E9800210B9007F07AFD01D21E988D
:103D200002E01E9880F0004020490C9007F0A4FCAF
:103D30001D490D9007F00EFB1D490E9007F09CFAEF
:103D40000F901E9801460E900F9807F095FC10906A
:103D500018480168109807F08FFC11901648016808
:103D6000119807F089FA1E901B981449109007F0DB
:103D70004FFC01D2114824E01B980B49109007F02A
:103D800047FD1DD208481CE080010020CC01002026
:103D9000DC0400200000C8C30000C843C0040020A9
:103DA000A404002000007AC400007A446666E63E5F
:103DB000CDCC0C3F580100205C0100200000C8421F
:103DC0001B987049119007F057FA6F4908601C98CA
:103DD0006E49109007F01CFC01D26C4808E01C985A
:103DE0006849109007F014FD01D2664800E01C9865
:103DF0006449119007F040FA654908601D986349CD
:103E0000109007F005FC01D2604808E01D985D495C
:103E1000109007F0FDFC01D25A4800E01D98594966
:103E2000119007F029FA5B4908601E9857491090D5
:103E300007F0EEFB01D2554808E01E98514910905A
:103E400007F0E6FC01D24F4800E01E984D49119062
:103E500007F012FA504908600846006807F08CFB2A
:103E600080B211904B48006807F086FB80B210903A
:103E70004748006807F080FB80B20F904248006816
:103E800007F07AFB80B20E900FA90EC9FEF7BEFABA
:103E90000FE03C483C4908603D4908603D490860E6
:103EA0003D4908604FF47A731A4619461846FEF7E2
:103EB000ADFA00BFFFF7C6B870B506460D4614460A
:103EC0002946304607F0A4FC01D2284670BD2146A1
:103ED000304607F09DFB01D22046F7E73046F5E774
:103EE00070B52E49B1F900102D4A1288881A07F0D2
:103EF00063FB05462B4907F0BFFB0446214907F049
:103F000029FA294908602949B1F90010284A12887C
:103F1000881A07F051FB0546224907F0ADFB04461D
:103F2000184907F017FA234908602348B0F9000040
:103F300007F042FB214908601848B0F90000B0F5CD
:103F4000BE6F08DA1548B0F90000B0F5B96F02DDB0
:103F50000020154908601548B0F90000B0F5BE6FA3
:103F600008DA1248B0F90000B0F5B96F02DD0020A0
:103F7000104908601248007818B912488068124940
:103F8000086070BD00007A44380100200000C8427B
:103F90003C0100204001002044010020C00100201D
:103FA000DE0100200000484248010020C20100203C
:103FB000E00100204C010020C40100205401002039
:103FC000CC010020D80200205001002030B589B07B
:103FD00005460C460121062003F09DFD0121082025
:103FE00003F08CFD0121084603F088FD40F2C33048
:103FF000ADF8080028208DF80B0002A9F94803F05D
:10400000C1FA4021F74803F06CFB8021F54803F02A
:1040100068FB4FF48071F34803F063FB4FF40071C9
:10402000F04803F05EFB0121EE4803F05AFB022149
:10403000EC4803F056FBEC4803F0C4FDEB4803F0FA
:10404000C1FDADF81C50ADF818400020ADF81A00C5
:10405000ADF81E0006A9E44803F088FE06A9E3486F
:1040600003F084FE0020ADF80C00ADF80E00012036
:10407000ADF810000020ADF81400ADF8120003A94F
:10408000D94804F006F90420ADF80C000020ADF882
:104090000E000120ADF810000020ADF81400ADF8BE
:1040A000120003A9D04804F0F4F80820ADF80C0081
:1040B0000020ADF80E000120ADF810000020ADF892
:1040C0001400ADF8120003A9C74804F0E2F803A9F0
:1040D000C64804F0DEF80C20ADF80C000020ADF866
:1040E0000E000120ADF810000020ADF81400ADF86E
:1040F000120003A9BC4804F0CCF803A9BB4804F0A3
:10410000C8F81E208DF8040001208DF805008DF8F8
:1041100006008DF8070001A802F063FD1D208DF850
:10412000040001208DF8050002208DF80600012012
:104130008DF8070001A802F054FD0121AA4804F0FF
:1041400071FA0121A94804F06DFA01220221A64862
:1041500004F083F901220421A34804F07EF901222E
:104160000821A14804F079F9012210219E4804F0A9
:1041700074F9012208219D4804F06FF901221021F1
:104180009A4804F06AF90121974804F04BF901219B
:10419000964804F047F909B030BD70B5082193483E
:1041A00004F009FC00287DD09148007800287AD0DE
:1041B0008E4804F0E7FB8F49088000208C49087086
:1041C0008D4840888C498880084600884880894806
:1041D00000888A490988884207DD8648008887491F
:1041E0000988401A8449088009E0844800884FF60D
:1041F000FF71081A7F49098808447F4908807E4971
:1042000089887D4A528811447B4A1288881807F0B1
:10421000D3F906467A4907F09DF80546794907F033
:104220002BFA0446002107F0F3F901D200202AE01E
:1042300071498988704A528811446F4A12888818D7
:1042400007F0BAF906466E4907F084F805466D494D
:1042500007F012FA04466C4907F0DAFA01D26A480C
:1042600011E065498988644A52881144624A12887B
:10427000881807F0A1F90546614907F06BF8044674
:10428000604907F0F9F961490860614801685F48D1
:10429000006807F0F9FA5F4908605C4800685C490B
:1042A000086001E02CE01BE057495848006807F01F
:1042B000AFFA02D25448554908605749534800683C
:1042C00007F048F8044607F03BF900B2534908806C
:1042D0000120534908700021444804F081FA0BE0A2
:1042E000012043490870414804F04CFB43490880D1
:1042F00002213E4804F074FA08213C4804F06CFBAB
:1043000010213A4804F057FB00286AD0454800784D
:10431000002856D0354804F038FB43490880002077
:10432000404908704048008840490988884208DDB3
:104330003D4800883D490988401A00B23C49088040
:104340000AE03A4800884FF6FF71081A3649098892
:10435000084400B2364908803548B0F9000040F200
:104360001451884205DA0020324908703249087039
:1043700022E02F48B0F9000040F2145188420ADDD3
:104380002B48B0F9000040F2DC51884203DA0120EA
:104390002849087010E02648B0F9000040F2DC51CE
:1043A000884209DD2248B0F9000040F63401884215
:1043B00002DA02201F49087000210C4804F02AFA92
:1043C0000BE0012017490870084804F0DEFA17498D
:1043D00008800221054804F01DFA1021034804F06A
:1043E000FBFA70BD000C01400008004000040040D2
:1043F000A0010020B4010020BA010020B201002079
:10440000000040407B142E3E00401C4590020020DE
:104410009402002098020020000020414C0200205D
:104420007C020020A1010020B8010020B60100207C
:10443000C8010020CD0100207D02002010B502211E
:104440007E4804F0B8FA002839D07D48007830B3AF
:104450007A4804F091FA7B49088000207849087076
:104460007848008878490988884208DD75480088BE
:1044700075490988401A00B2744908800AE07248F8
:1044800000884FF6FF71081A6E490988084400B287
:104490006E4908800021694804F076F90BE001209C
:1044A00067490870654804F067FA67490880022187
:1044B000624804F069F90221604804F08DFA042191
:1044C0005E4804F078FAC8B36148007830B35B48BE
:1044D00004F055FA5F49088000205D4908705D4886
:1044E00000885D490988884208DD5A4800885A4991
:1044F0000988401A00B2594908800AE056480088E5
:104500004FF6FF71081A53490988084400B253490D
:1045100008800021494804F049F90BE001204C498A
:104520000870464804F02BFA4B49088002214348A2
:1045300004F03CF90421414804F04EFA08213F48B8
:1045400004F039FAC8B34648007830B33B4804F069
:1045500019FA444908800020414908704148008800
:1045600041490988884208DD3E4800883E4909885B
:10457000401A00B23D4908800AE03B4800884FF6E7
:10458000FF71081A37490988084400B23749088082
:1045900000212A4804F024F90BE00120304908707A
:1045A000264804F0EFF9304908800221234804F03E
:1045B00017F90821214804F00FFA10211F4804F0D0
:1045C000FAF9C8B32A48007830B31C4804F0DDF982
:1045D0002849088000202649087026480088264976
:1045E0000988884208DD2348008823490988401A41
:1045F00000B2224908800AE01F4800884FF6FF7188
:10460000081A1C490988084400B21C490880002186
:104610000A4804F0FFF80BE001201549087007482C
:1046200004F0B3F9144908800221044804F0F2F8B8
:104630001021024804F0D0F910BD0000000800402D
:104640009C010020A4010020A2010020C201002042
:104650009D010020A8010020A6010020C00100202B
:104660009E010020AC010020AA010020C40100200E
:104670009F010020B0010020AE010020C6010020F3
:104680008A49B1F90010B1F5617F26DD8749B1F99A
:10469000001040F24C4291421FDA8549B1F90010F6
:1046A00040F63402914218DA8149B1F9001040F223
:1046B0006C72914211DD7F490968491C7D4A116085
:1046C00011460968814235D901217B4A11700021C8
:1046D000784A1160794A11602CE07449B1F90010F0
:1046E000B1F5617F23DD7149B1F9001040F24C4210
:1046F00091421CDA6E49B1F90010B1F5617F16DD07
:104700006B49B1F90010914211DA6A490968491CF4
:10471000684A11601146096881420BD90021664A36
:104720001170644A11600121644A116002E00021A5
:10473000604A1160704710B500206149086001208F
:104740006049C1F8A0016420FBF79FFD01205C498E
:1047500008605C49C1F8A001002490E05348B0F91A
:1047600000005949098888420ADD5048B0F9000024
:1047700040F6C411884203DA4C4800885249088048
:104780004A48B0F9000051490988884209DA474887
:10479000B0F90000B0F5617F03DD444800884B4963
:1047A00008804348B0F900004949098888420ADD79
:1047B0003F48B0F9000040F6C411884203DA3C4893
:1047C0000088434908803A48B0F900004149098807
:1047D000884209DA3648B0F90000B0F5617F03DDA0
:1047E000334800883B4908803B48B0F900003B490A
:1047F000098888420ADD3848B0F9000040F6C41143
:10480000884203DA34480088344908803248B0F9D5
:10481000000033490988884209DA2F48B0F90000BE
:10482000B0F5617F03DD2C4800882D4908802D48B4
:10483000B0F900002C49098888420ADD2948B0F9FE
:10484000000040F6C411884203DA26480088264951
:1048500008802448B0F9000024490988884209DA10
:104860002048B0F90000B0F5617F03DD1D480088E5
:104870001E4908801420FBF708FD601C84B2B4F5C3
:10488000FA7FFFF66BAF00200D49086001200D494B
:10489000C1F8A0016420FBF7F8FC0120084908607A
:1048A0000849C1F8A001FCF73CFE10BDC40100207E
:1048B000C6010020E4010020CC010020A00121421B
:1048C0008881224200002142CE010020D001002038
:1048D000D2010020D4010020C0010020D601002018
:1048E000D8010020C2010020DA010020DC010020F4
:1048F000014600BF704700BFFE4A128802F0400226
:10490000002AF9D0C2B2FB4B1B1D1A80704710B5AC
:1049100086B00446012144F2050003F0EFF84FF49D
:104920000070ADF8140003208DF8160018208DF8E3
:10493000170005A9F04802F025FE4FF48060ADF89D
:10494000140004208DF8170005A9EB4802F01AFEA8
:1049500025208DF8000000208DF8010001208DF841
:1049600002008DF80300684602F03BF90194002034
:10497000ADF80800ADF810000C20ADF80E000020D6
:10498000ADF80C00ADF80A0001A9DA4804F06BF8A4
:10499000012240F22551D74804F0FDF80121D54805
:1049A00004F0EDF806B010BD2DE9F04104460026F4
:1049B000002505E0D148405D3044C6B2681CC5B250
:1049C000601EA842F6DCCD49085CB04201D0BDE8CB
:1049D000F081CA480078AA2804D0C8484078AF2897
:1049E00000D0F4E7C5488078012827D1C348007972
:1049F000012801D1C2490870C0480079022802D1BB
:104A00000120C0490870BD480079032804D1012065
:104A1000BB490870BB490870B8480079042805D123
:104A20000020B94908600120B8498870B34800796E
:104A3000052802D10120B6490870D0E1AF4880783E
:104A4000022806D1AD4800790128F6D1B149087095
:104A5000C5E1AA48807810287ED1A84909790902C1
:104A600009B2A64A527941EA020006F0A5FD0746BE
:104A7000A94906F06FFCA9490860A0498979090293
:104A800009B29E4AD27941EA020006F095FD074636
:104A9000A14906F05FFCA14948609849097A0902DA
:104AA00009B2964A527A41EA020006F085FD0746AD
:104AB000994906F04FFC994988609049897A090222
:104AC00009B28E4AD27A41EA020006F075FD074625
:104AD000914906F03FFC924908608849097B090228
:104AE00009B2864A527B41EA020006F065FD07469C
:104AF000894906F02FFC8A4948608049897B090270
:104B000009B27E4AD27B41EA020006F055FD074613
:104B1000814906F01FFC824988607849097C0902B6
:104B200009B2764A527C41EA020006F045FD07468A
:104B3000794906F00FFC7B4908607049897C0902BD
:104B400009B26E4AD27C41EA020006F035FD074602
:104B5000714906F0FFFB00E017E0724948606749C1
:104B6000097D090209B2654A527D41EA020006F058
:104B700023FD0746684906F0EDFB6A4988605F49F6
:104B800088783146FCF760FD29E15C48807811287F
:104B90007ED15A490979090209B2584A527941EA43
:104BA000020006F009FD07465B4906F0D3FB5E49AB
:104BB000086052498979090209B2504AD27941EA1A
:104BC000020006F0F9FC0746534906F0C3FB5649BC
:104BD00048604A49097A090209B2484A527A41EAC8
:104BE000020006F0E9FC07464B4906F0B3FB4E49CC
:104BF00088604249897A090209B2404AD27A41EA78
:104C0000020006F0D9FC0746434906F0A3FB4749DA
:104C100008603A49097B090209B2384A527B41EAE5
:104C2000020006F0C9FC07463B4906F093FB3F49EA
:104C300048603249897B090209B2304AD27B41EA95
:104C4000020006F0B9FC0746334906F083FB3749FA
:104C500088602A49097C090209B2284A527C41EA43
:104C6000020006F0A9FC07462B4906F073FB304909
:104C700008602249897C090209B2204AD27C41EAB3
:104C8000020006F099FC0746234906F063FB00E0AA
:104C900017E0274948601949097D090209B2174AF6
:104CA000527D41EA020006F087FC07461A4906F0E9
:104CB00051FB1F498860114988783146FCF7C4FCD4
:104CC0008DE00E48807812287ED10C4909790902BE
:104CD00009B20A4A527941EA020006F06DFC074621
:104CE0000D4906F037FB1349086004498979090228
:104CF00009B221E00038014000080140040500200D
:104D0000F4010020F50100208881224214020020D5
:104D10004E0200202B01002000007A44A404002051
:104D2000C0040020DC040020500400206C0400209B
:104D300088040020580600206C4AD27941EA02001B
:104D400006F03AFC07466A4906F004FB69494860E8
:104D50006649097A090209B2644A527A41EA0200B4
:104D600006F02AFC0746624906F0F4FA61498860B9
:104D70005E49897A090209B25C4AD27A41EA0200A4
:104D800006F01AFC07465A4906F0E4FA5A49086048
:104D90005649097B090209B2544A527B41EA020092
:104DA00006F00AFC0746524906F0D4FA5249486018
:104DB0004E49897B090209B24C4AD27B41EA020082
:104DC00006F0FAFB074600E009E0494906F0C2FA9E
:104DD00049498860454988783146FCF735FC00BF71
:104DE000F5E510B50821454803F0A4FF10B143488C
:104DF00003F036FF40F22551404803F0B1FF002890
:104E000073D03E48001D00883D4908700846007870
:104E1000AA2809D13B48007830B9012039490870E7
:104E2000AA20324908705BE035480078AF280AD1E3
:104E300034480078012806D1022032490870AF209A
:104E40002A4948704CE02E480078F1280FDA2C48A7
:104E5000007800280BDD2B480078022807D10320BA
:104E600028490870264800782049887038E024488E
:104E7000007832280EDC2348007803280AD1042069
:104E8000204908701E4800781849C87000201E4943
:104E9000087025E01B48007804281ED118480178C6
:104EA00019480078001D114A11541046C07816495F
:104EB000097888420BD114490978491DC8B2FFF717
:104EC00073FD0020104908700E49087008E00E4874
:104ED0000078401C0C49087002E000200949087065
:104EE00040F22551054803F065FF10BD0405002080
:104EF00000007A44580600203C060020003801409B
:104F0000F0010020F1010020F201002070B50446FC
:104F10000D462A462146D020FDF718FC70BD70B51D
:104F200004460025BC2C01DB012510E0622C01DBCE
:104F300002250CE02A2C01DB032508E0142C01DB00
:104F4000042504E00A2C01DB052500E0062529469E
:104F50001A20FFF7DBFF70BD70B50446B4F57A7F09
:104F600001DD4FF47A74042C00DA04244FF47A70D3
:104F700090FBF4F0401EC5B229461920FFF7C6FF8A
:104F80000546264604EBD671C1F34F00FFF7C7FF75
:104F900070BD10B504462146D020FDF7FAFB10BDC8
:104FA00010B50446E006010E1C20FFF7AFFF10BD50
:104FB00010B50446E006010E1B20FFF7A7FF10BD49
:104FC00010B5FDF746FA80216B20FFF79FFF6420A4
:104FD000FBF75BF900216B20FFF798FF0320FFF739
:104FE000E7FF0120FFF7DCFF3220FFF7B5FF0021CC
:104FF0003820FFF78BFF00216A20FFF787FF002191
:105000002320FFF783FF82213720FFF77FFF7520E2
:10501000FFF7BFFF0446682C0AD101216B20FFF780
:1050200075FF00216C20FFF771FF3220FFF794FF1E
:1050300010BD2DE9F05F04460D46AE484078AD49FD
:10504000097840EA0120AC490988401A06B2A9480B
:10505000C078A849897840EA0120A7494988401AC0
:1050600007B2A4484079A349097940EA0120A2493E
:105070008988401A0FFA80F89E48407A9D49097A3B
:1050800040EA01209D490988401A0FFA80F99948A1
:10509000C07A9849897A40EA012098494988401A9B
:1050A0000FFA80FA9348407B9249097B40EA01203D
:1050B00092498988401A0FFA80FBB6F5004F02DB4F
:1050C00047F6FF7000E030462080B7F5004F02DB66
:1050D00047F6FF7000E038466080B8F5004F02DB0D
:1050E00047F6FF7000E04046A08016F5004F01DA59
:1050F000834800E03046208017F5004F01DA8048F1
:1051000000E03846608018F5004F01DA7C4800E086
:105110004046A080B9F5004F02DB47F6FF7000E083
:1051200048462880BAF5004F02DB47F6FF7000E0E2
:1051300050466880BBF5004F02DB47F6FF7000E089
:105140005846A88019F5004F01DA6D4800E048463E
:1051500028801AF5004F01DA694800E0504668805F
:105160001BF5004F01DA664800E05846A880654804
:10517000007800284CD06448007888B900205F4946
:1051800008804880888061490860614908606149F9
:1051900008605D480078401C5B490870BDE8F09FDE
:1051A0005A480068484459490860594800685044C2
:1051B00057490860574800685844564908605248A3
:1051C000007864281FD151480068642190FBF1F0F9
:1051D00000B24A4908804E480068642190FBF1F013
:1051E00000B2464948804B480068642190FBF1F0CA
:1051F00000B2424988800020434908704149087044
:10520000FCF761F9CAE740480078401C3E49087045
:105210004148007800284DD04048007880B90020EF
:1052200035490880488088803D4908603D490860CC
:105230003D49086039480078401C38490870ADE79E
:1052400037480068304436490860364800683844BA
:1052500034490860344800684044334908602F48A6
:105260000078642821D12E480068642190FBF1F079
:1052700000B2214908802B480068642190FBF1F0BE
:1052800000B21D49488028480068642190FBF1F075
:10529000A0F5005000B21849888000201F4908700E
:1052A0001D490870FCF726F978E71C480078401C77
:1052B0001A49087000BF71E72DE9F04104460D4618
:1052C00016461F46D0243B46324629462046FDF767
:1052D000DCF9BDE8F0812DE9F04104460D461646A3
:1052E0001F46D0243B46324629462046FDF7F9F9B1
:1052F000BDE8F081680500205E0000205800002015
:105300000080FFFFF5010020F6010020F8010020D9
:10531000FC01002000020020F40100200402002013
:10532000080200200C0200201002002010B50A2103
:105330003C20FDF72EFA04461CB90020E94908700C
:1053400010BD0120E7490870782200213C20FDF7BC
:10535000FDF9202201213C20FDF7F8F9002202216D
:105360003C20FDF7F3F96420FAF78FFF00BFE7E771
:105370002DE9F0470546DC48007890B10020DA4975
:105380000870DA490860DA490860DA4908600024E0
:1053900005E00020D84921F81400601CC4B2062C96
:1053A000F7DB00241CE0D44830F9140035F9141060
:1053B000884205DD35F81400CF4921F814000DE0CE
:1053C000CD49E01C31F9100035F91410884205DA96
:1053D00035F81410C84AE01C22F81010601CC4B242
:1053E000032CE0DBBF48807801283DD1C348B0F9E9
:1053F0000400002804DAC148B0F90400404202E089
:10540000BE48B0F9040041F2883188422CDDBC4925
:10541000B1F9040006F0D0F88146BA4906F02CF93B
:105420008046B94906F028F90746B0480168384671
:1054300005F022FFAD4908600021AC48006806F085
:10544000E7F804D2A948006880F0004001E0A748CE
:1054500000680746AD4906F0DBF905D80220A149EE
:1054600088700120AA4908609E48807802283DD1B2
:10547000A248B0F90000002804DAA048B0F9000002
:10548000404202E09D48B0F9000041F28831884274
:105490002CDD9B49B1F9000006F08EF88146994950
:1054A00006F0EAF88046984906F0E6F80746914883
:1054B0000168384605F0E0FE8E49086000218D48FD
:1054C000006806F0A5F804D28A48006880F0004021
:1054D00001E08848006807468C4906F099F905D232
:1054E0000320804988700020894908607D488078C1
:1054F00003285DD18148B0F90200002804DA7F4812
:10550000B0F90200404202E07C48B0F9020041F2EA
:10551000883188424CDD7A49B1F9020006F04CF836
:105520008146784906F0A8F88046774906F0A4F845
:1055300007466F480168384605F09EFE6C490860D2
:1055400000216B48006806F063F804D268480068E0
:1055500080F0004001E06648006807466B4906F0AD
:1055600057F925D2002412E0634830F914000028CE
:1055700004DA614830F91400404202E05E4830F934
:105580001400142801DA701CC6B2601CC4B2062CC8
:10559000EADB022E02DD01205249487001205C49FD
:1055A00008605149087000204E498870FBF7F3FFEE
:1055B000BDE8F0871CB504466B46062203213C205B
:1055C000FDF78FF8534800680A2190FBF1F051492C
:1055D0000968081A4F4908609DF801009DF80010FD
:1055E00040EA01204B49096808444A4908600846D6
:1055F00000680A2190FBF1F000B247490880454855
:1056000040680A2190FBF1F042494968081A414973
:1056100048609DF805009DF8041040EA01203D49CE
:10562000496808443B494860084640680A2190FBA5
:10563000F1F000B238494880364880680A2190FB72
:10564000F1F034498968081A324988609DF80300EE
:105650009DF8021040EA01202E49896808442D492E
:105660008860084680680A2190FBF1F000B22A4960
:1056700088801C48807830B100201A49487026483C
:10568000FFF776FE2CE01C49B1F906101A4AB2F970
:105690000020881800EBD0711F4A1288A2EB61012C
:1056A00009B221801449B1F90810134AB2F9022055
:1056B000881800EBD071184A5288A2EB610109B238
:1056C00061800D49B1F90A100B4AB2F9042088181B
:1056D00000EBD071104A9288A2EB610109B2A1805F
:1056E0001CBD0000140200201E0200202802002021
:1056F0002402002020020020780500204C00002019
:10570000520000208DC1793D6F12033B0000B4436D
:1057100088812242840500201802002030B501460D
:105720000022012008E0F84B53F82040431EF64DBC
:1057300045F82340431CD8B20A28F4DBF24B5962E7
:105740000022002005E0F04B53F820301A44431C9F
:10575000D8B20A28F7DB0A2392FBF3F3EA4CA362E0
:10576000EA4C236030BD30B50146002201200AE03A
:10577000E54B2C3353F82050431EE34C2C3444F8B3
:105780002350431CD8B20A28F2DBDF4B19650022F4
:10579000002006E0DC4B2C3353F820301A44431C25
:1057A000D8B20A28F6DB0A2392FBF3F4D64B5C65E9
:1057B000D74B1C6030BD30B501460022012008E007
:1057C000D44B53F82040431ED24D45F82340431C90
:1057D000D8B21428F4DBCF4BD9640022002005E0B6
:1057E000CC4B53F820301A44431CD8B21428F7DBB2
:1057F000142392FBF3F3C74C2365C74C236030BDE1
:10580000C549096801607047C1490968016070476E
:10581000BE4909680160704710B5C048007848B9B2
:105820000020BF4908600120BC4908700020BD4924
:10583000086010BDBB480068B74909680844B94909
:105840000860B6480078322814D10846006819303C
:10585000322190FBF1F0B24908600020AF49087096
:10586000B0490860B04908700120B0490860FBF7F2
:10587000B4FEDEE7A9480078401CA849087000BFC4
:10588000D7E770B504460D46164633462A462146EC
:10589000EE20FCF726FF70BD70B504460D462A4683
:1058A0002146EE20FCF752FF70BD2DE9F04705467A
:1058B00035B12E21F420FFF7EFFF0A20FAF7E5FCBF
:1058C0009B4A0221F620FFF7DCFF9948407898496F
:1058D000097840EA012697480088301A96490988D5
:1058E0004843C4139548B0F900809548B0F900903A
:1058F0004FEAC82004EB090190FBF1F7E019914948
:105900000860BDE8F08730B58BB005460C4674B131
:105910002046FFF7CAFF8C480078342202EB801043
:10592000C1B2F420FFF7B8FF1E20FAF7AEFC804AA0
:105930000321F620FFF7A5FF7D48007800047C498D
:10594000497840EA01207A49897808437E49B1F9CB
:105950000010C1F1080108410A907A480068A0F5DA
:105960007A6005900598404300137849B1F900101A
:105970004843C01209907648B0F9000005994843A1
:10598000C0120890DDE90810084407907148B0F98A
:10599000000001900799019801EB80006A4909789D
:1059A000884001900198801C801006906A48B0F9E8
:1059B000000005994843401309900598404300139F
:1059C0006649B1F90010484300140890DDE9081059
:1059D0000844801C8010079061480088079901F5F1
:1059E00000414843C00B039006990A98401A564953
:1059F0000A784CF250311141484302900298B0F1BC
:105A0000004F06D2029840000399B0FBF1F00490D9
:105A100005E0DDE9020190FBF1F0400004900498FC
:105A20000012049909124843099040F6DE310998A2
:105A30004843001409904B490498484300140890C7
:105A4000DDE90810084400F6CF60049901EB20104E
:105A500028600BB030BD2DE9F34F89B0824608A80D
:105A60000A99FFF750FF0898FFF77DFE2848006865
:105A700008902B48006805F05CF8CDE906013A482B
:105A8000006805F099FD0190089805F095FD0090DB
:105A9000019905F05FFC834605F0C2FB334A344BA5
:105AA000CDE9020104F07EF806460022314B05F0F4
:105AB000DBF904460022304B05F0A2F8CDE90401E1
:105AC000DDE9062305F0C2FA804605F003F8CAF8BE
:105AD00000000BB0BDE8F08F70B504460D462846B7
